:020000040800F2
:1010000000500020A95F0008A55F0008A35F00084A
:10101000A35F0008A35F0008A35F000800000000B2
:10102000000000000000000000000000A55F0008B4
:10103000A55F000800000000A55F0008A55F00088C
:10104000A35F0008A35F0008A35F0008A35F000878
:10105000A35F0008A35F0008A35F0008A35F000868
:10106000A35F0008A35F0008A35F0008A35F000858
:10107000A35F0008A35F0008A35F0008A35F000848
:10108000A35F0008A35F0008A35F0008E53700081E
:10109000C5370008D5370008A35F0008A35F000824
:1010A000A35F0008A35F0008A35F0008A35F000818
:1010B000E91B0008A35F0008A35F0008A35F000806
:1010C000A35F0008A35F0008A35F0008A35F0008F8
:1010D000A35F0008A35F0008A35F0008A35F0008E8
:1010E000A35F0008A35F0008A35F0008A35F0008D8
:1010F000A35F0008A35F0008A35F0008A35F0008C8
:10110000A35F0008A35F0008A35F0008A35F0008B7
:10111000A35F0008A35F0008A35F0008A35F0008A7
:10112000A35F0008A35F0008A35F0008A35F000897
:10113000A35F0008A35F0008A35F0008133800083E
:10114000F337000803380008A35F0008A35F000816
:1011500010B504460846114664681A46A04710BDFB
:1011600008B58368984708BD704708B5012001F0AD
:1011700033F8002008BD000008B50F2001F02CF85E
:101180000A2809DD094B9988186804F01BFB012126
:10119000252001F037F808BD044B9988186804F041
:1011A00013FB0021252001F02DF8F4E74401002075
:1011B00010B5074C002240F20561206802F057FB91
:1011C00000224FF4D771206802F051FB10BD00BF20
:1011D000FC00002008B504F031FD02F02BF808BD3A
:1011E000FEE7000008B5072000F0F6FF58B101281F
:1011F00012D1484B9988186804F0E4FA01211F20A5
:1012000001F000F808E0434B9988186804F0DCFA14
:1012100000211F2000F0F6FF082000F0DDFF58B18C
:10122000012812D13C4B9988186804F0CBFA0121AF
:10123000202000F0E7FF08E0374B9988186804F099
:10124000C3FA0021202000F0DDFF092000F0C4FFD8
:1012500058B1012812D1314B9988186804F0B2FABC
:101260000121212000F0CEFF08E02C4B998818685E
:1012700004F0AAFA0021212000F0C4FF0A2000F0A7
:10128000ABFF58B1012812D1254B9988186804F09A
:1012900099FA0121222000F0B5FF08E0204B99883F
:1012A000186804F091FA0021222000F0ABFF0B2017
:1012B00000F092FF58B1012812D11A4B9988186892
:1012C00004F080FA0121232000F09CFF08E0154B78
:1012D0009988186804F078FA0021232000F092FF22
:1012E0000C2000F079FF58B1012812D10E4B9988DB
:1012F000186804F067FA0121242000F083FF08E059
:10130000094B9988186804F05FFA0021242000F046
:1013100079FF08BD4C010020740100206C01002001
:10132000640100205C0100205401002030B583B02E
:10133000FF238DF8003000238DF801300D4C237809
:101340008DF80230CD238DF803300B4B18680368FD
:101350005D6804236A464FF4E971A8472378013396
:10136000DBB22370FF2B01D003B030BD002222700E
:10137000FAE700BFE0000020FC00002008B5264B83
:101380009988186804F020FA244B9988186804F0AA
:101390001BFA234B9988186804F016FA214B998898
:1013A000186804F011FA204B9988186804F00CFAB8
:1013B0001E4B9988186804F007FA1D4B9988186825
:1013C00004F002FA1B4B9988186804F0FDF91A4BD7
:1013D0009988186804F0F8F9184B9988186804F08F
:1013E000F3F9174B9988186804F0EEF9154B9988B2
:1013F000186804F0E9F9144B9988186804F0E4F9C6
:10140000124B9988186804F0DFF9114B9988186815
:1014100004F0DAF908BD00BFA40100209C010020FF
:10142000940100208C010020840100207C01002018
:10143000740100206C010020640100205C01002088
:10144000540100204C010020440100203C010020F8
:101450003401002008B50F4B9988186804F0B4F9DE
:101460000D4B9988186804F0AFF90C4B99881868EF
:1014700004F0AAF90A4B9988186804F0A5F9094BF9
:101480009988186804F0A0F9074B9988186804F047
:101490009BF908BDA40100209C01002094010020BC
:1014A0008C010020840100207C01002038B503203D
:1014B00000F092FE18B1012800F0E78138BD052048
:1014C00000F08AFE0328F9D8DFE810F004001900C4
:1014D000A4004E01984B9988186804F075F9974B51
:1014E0009988186804F070F9954B9988186804F089
:1014F0006BF9944B9988186804F066F9DEE78E4B17
:101500009988186804F05EF98C4B9988186804F083
:1015100059F98B4B9988186804F056F9894B9988CA
:10152000186804F051F9042000F056FE002839D064
:101530000128C3D1844B1B68002BBFD1122000F0BF
:101540004BFE0128BADD814B9988186804F03CF9FC
:101550007F4B9988186804F035F97E4A1368013387
:1015600013600F2BAAD1FFF775FF0025794B1D6083
:101570000124754B1C602146142000F043FE764B7D
:101580009988186804F01EF92146262000F03AFEDA
:10159000724B9988186804F017F92946272000F043
:1015A00031FE8BE7684B1B68012B87D1122000F0BE
:1015B00013FE012882DD654B9988186804F002F952
:1015C000634B9988186804F0FFF8624A1368013386
:1015D00013600E2B7FF472AFFFF73CFF00245D4BCE
:1015E0001C60594B1C602146142000F00BFE5A4B26
:1015F0009988186804F0E8F82146262000F002FED9
:10160000564B9988186804F0DDF80121272000F076
:10161000F9FD53E7484B9988186804F0D5F8474B13
:101620009988186804F0D0F8454B9988186804F038
:10163000C9F8444B9988186804F0C4F8042000F0F5
:10164000CBFD00283DD001287FF438AF444B1B6808
:10165000002B7FF433AF132000F0BEFD01287FF78D
:101660002DAF3A4B9988186804F0AEF8384B99883A
:10167000186804F0A7F83B4A1368013313600F2B76
:101680007FF41CAFFFF7E6FE0025364B1D600124FA
:10169000334B1C602146142000F0B4FD2E4B99887A
:1016A000186804F08FF82146262000F0ABFD2B4B84
:1016B0009988186804F088F82946272000F0A2FDD0
:1016C000FCE6274B1B68012B7FF4F8AE132000F0DB
:1016D00083FD01287FF7F2AE1C4B9988186804F04F
:1016E00071F81B4B9988186804F06EF81D4A13684E
:1016F000013313600E2B7FF4E1AEFFF7ABFE002445
:10170000184B1C60164B1C602146142000F07AFD1B
:10171000114B9988186804F057F82146262000F0EC
:1017200071FD0E4B9988186804F04CF801212720B0
:1017300000F068FDC2E600BF940100208C0100208B
:10174000840100207C010020F0000020A401002082
:101750009C010020E80000203C0100203401002012
:10176000EC000020E4000020904B9988186804F0F9
:1017700029F88F4B9988186804F024F88D4B9988C4
:10178000186804F01FF88C4B9988186804F01AF850
:10179000042000F021FD00283DD001287FF48EAE0A
:1017A000864B1B68002B7FF489AE122000F014FDDD
:1017B00001287FF783AE824B9988186804F004F8FB
:1017C000804B9988186803F0FDFF7F4A1368013346
:1017D00013600F2B7FF472AEFFF73CFE00257A4BAF
:1017E0001D600124754B1C602146142000F00AFD89
:1017F000764B9988186803F0E5FF2146262000F013
:1018000001FD734B9988186803F0DEFF29462720F5
:1018100000F0F8FC52E6694B1B68012B7FF44EAEDA
:10182000122000F0D9FC01287FF748AE644B99885C
:10183000186803F0C7FF634B9988186803F0C4FF6A
:10184000614A1368013313600E2B7FF437AEFFF744
:1018500001FE00245C4B1C60584B1C602146142088
:1018600000F0D0FC594B9988186803F0ADFF214671
:10187000262000F0C7FC564B9988186803F0A2FF99
:101880000121272000F0BEFC18E6484B9988186813
:1018900003F098FF464B9988186803F093FF454B77
:1018A0009988186803F08EFF434B9988186803F0F5
:1018B00089FF042000F090FC00283DD001287FF42F
:1018C000FDAD3E4B1B68002B7FF4F8AD122000F0FD
:1018D00083FC01287FF7F2AD394B9988186803F033
:1018E00073FF384B9988186803F06CFF364A136809
:1018F00001331360162B7FF4E1ADFFF7ABFD324BE4
:1019000000221A6001242D4B1C602146142000F097
:1019100079FC2E4B9988186803F054FF2146262045
:1019200000F070FC2A4B9988186803F04BFF2146A1
:10193000272000F067FCC1E5204B1B68012B7FF4DA
:10194000BDAD122000F048FC01287FF7B7AD1C4B5D
:101950009988186803F036FF1A4B9988186803F0C5
:1019600033FF194A1368013313601E2B7FF4A6ADB1
:10197000FFF770FD0021144B1960104B1960142003
:1019800000F040FC114B9988186803F01BFF0121FF
:10199000262000F037FC0E4B9988186803F012FFE0
:1019A0000121272000F02EFC88E500BF94010020D3
:1019B0008C010020840100207C010020F000002028
:1019C000A40100209C010020E80000203C01002030
:1019D000340100200000000038B55B4B998818687E
:1019E00003F0F5FE03F0FCFE584801F02DFB05F076
:1019F0003FF80446564B186805F03EF8014620466D
:101A000005F042F901460F2000F00AFC514801F0B0
:101A10001BFB05F02DF80146102000F001FC4E489C
:101A200001F012FB05F024F80146112000F0F8FB4C
:101A30004A4801F009FB05F01BF80446484D2868A8
:101A400005F01AF80146204605F01EF9014612205D
:101A500000F0E6FB434801F0F7FA05F009F8044608
:101A6000286805F009F80146204605F00DF9014601
:101A7000132000F0D5FB3C4C204601F0E5FA04F0C1
:101A8000F7FF0146152000F0CBFB204601F0DCFA01
:101A900004F0EEFF354904F039FF04F079FC28A387
:101AA000D3E9002304F0F6FD04F0DCFE0146162025
:101AB00000F0B6FB162000F08FFB002839DB2C4825
:101AC00001F0C2FA04F0D4FF0146172000F0A8FB91
:101AD000284801F0B9FA04F0CBFF0146182000F0C5
:101AE0009FFB254801F0B0FA04F0C2FF014619201F
:101AF00000F096FB214801F0A7FA04F0B9FF014677
:101B00001A2000F08DFB1E4B186800F029FB04F032
:101B1000B3FF1C4905F0B8F80146282000F080FB0F
:101B2000194B186801F00EFFFFF700FCFFF7BEFC31
:101B300038BD0021162000F073FBC0E7AFF3008032
:101B40001F85EB51B89E2340AC010020B801002056
:101B500004000020D8010020D4010020D001002082
:101B600000000020CC010020C8010020000022431A
:101B7000C4010020C0010020BC010020B4010020ED
:101B80000001002000002041F800002010B50138BD
:101B90000B2810D8DFE800F022060F0F0F0F1013EC
:101BA00016191C1F0F4B1C68022000F015FBC1B258
:101BB000204602F0ADFF10BDFFF714FBFBE7FFF777
:101BC00011FBF8E7FFF70EFBF5E7FFF70BFBF2E77A
:101BD000FFF708FBEFE7FFF705FBECE7FFF7E8FA95
:101BE000E9E700BFF400002008B5024B186800F0D8
:101BF0007FFA08BD0001002080B5ADF6080D00F0A9
:101C000085F900F012FA944C00222146934801F025
:101C10005FFA01222146924801F05AFA0222214637
:101C2000904801F055FA032221468F4801F050FAFE
:101C3000042221468D4801F04BFA052221468C48AA
:101C400001F046FA062221468A4801F041FA0722AD
:101C50002146894801F03CFA884D002229468848EF
:101C600001F036FA01222946864801F031FA0723AD
:101C70004FF400528449854800F0EBFE07234022D0
:101C80002946834800F0E5FE072380222946814843
:101C900000F0DFFE07234FF4807221467E4800F0FB
:101CA000D8FE07234FF4007221467C4800F0D1FE95
:101CB00007234FF480622146794800F0CAFE0723CB
:101CC0004FF400622146774800F0C3FE07234FF42B
:101CD00080522146744800F0BCFE07234FF40042B6
:101CE0002146724800F0B5FE0723082229467048B5
:101CF00000F0AFFE0723102229466E4800F0A9FE2F
:101D00000723202229466C4800F0A3FE07234FF446
:101D100000422946694800F09CFE07234FF4805298
:101D20002946674800F095FE07234FF400522946E4
:101D3000644800F08EFE07234FF480422946624833
:101D400000F087FE01F0F8F800F01EF94FF4804132
:101D50004FF0007003F02CFD00F05EF901F03CFA4A
:101D60000DF5FC644FF08041204600F069F9574BB7
:101D70001C600DF28455012302225549284601F0CA
:101D800067FC544BCDF87835534BCDF87835534B31
:101D9000CDF87C35524BCDF88035AEAF01222946C7
:101DA000384602F0D7FA8EAE3A462946304602F05F
:101DB0008BFE022000F010FAC1B2304602F0A8FEFD
:101DC000484B1D60DFF82081C8F80070474B1E604B
:101DD0000DF5AF61284601F03BFD0125009500237C
:101DE000434A444903A800F0B9FAD8F80020424B0E
:101DF0001A602A464149204600F044F90A22404927
:101E0000204600F03FF964223E49204600F03AF9AE
:101E1000C8223D49204600F035F904210E2000F08B
:101E2000F1F92920FFF7B2FEFFF7A8FAFFF7C0F992
:101E3000284600F0D1F904E00DF10B018FA802F063
:101E4000A3FB00238DF80B3003A800F069FC939BE3
:101E5000002BF6D1F0E700BF00080140D8010020B8
:101E6000D4010020D0010020CC010020C8010020B6
:101E7000C4010020C0010020BC010020000C014072
:101E8000B8010020B401002000100140AC01002086
:101E9000A40100209C010020940100208C0100205E
:101EA000840100207C010020740100206C010020CE
:101EB000640100205C010020540100204C0100203E
:101EC000440100203C0100203401002000010020DA
:101ED00000640040146E0008246E00086B110008B6
:101EE000B1110008FC000020F8000020F4000020E0
:101EF000147B000800480040E80200206911000837
:101F0000D5110008D91900087911000808B51C4836
:101F100003F0B4FD4FF0E0231A4AC3F80C2D40F251
:101F2000023003F009FE40F2033003F005FE4FF4E7
:101F3000417003F001FE40F2053003F0FDFD40F278
:101F4000923003F0F9FD4FF4607003F0F5FD40F2BC
:101F5000813003F0F1FD4FF4207003F0EDFD40F20D
:101F6000093003F0E9FD40F2862003F0E5FD4FF46F
:101F7000407003F0E1FD40F2993003F0DDFD08BD53
:101F8000D87C00080003FA0530B597B003F0A8FA32
:101F900000F5FF3505F2FD15AD021422002101A860
:101FA00000F051FD1A4B01934FF40053ADF8083087
:101FB00001238DF80A308DF80B30164A0392042263
:101FC000ADF810208DF8123000238DF8133003F097
:101FD0006BFA142101A803F075FA15902B6D83425A
:101FE00001D117B030BD03F08DFB284603F046FB4E
:101FF000002407E001AB53F8241005EB840003F044
:102000009BFB0134142CF5D903F088FBE9E700BFF2
:1020100000100140000C014008B51C2004F030F80D
:10202000E0211C2004F038F808BD08B54FF41C71FD
:10203000032003F03BFE002003F00AFE08BD000071
:1020400038B505460C460162084603F056FE2046A8
:1020500003F058FE094B19684909094BA3FB0131EC
:10206000C9090139204603F05CFE4FF6FF71204696
:1020700003F059FE00236B62284638BDD8000020CB
:10208000C55A7C0AF8B5436A032B00DDF8BD044647
:102090000E461546006A03F03FFE636A134F0122A5
:1020A000F95C206A03F041FE636A0022F95C206A51
:1020B00003F001FF636A44F8236003F1080105EBB4
:1020C000850202EB8202920024F81120022199403D
:1020D000206A03F005FE0021206A03F0FEFE206A5C
:1020E00003F015FE636A01336362CFE72C6E0008CC
:1020F000F8B50546002424E00226A6403146286AA9
:1021000003F0F2FD10B3286A03F0E5FE87B22B6AF4
:1021100003EB84035A6B04F1080135F811100A44EB
:102120005A6355F824309847286A03F0D4FEC01B40
:1021300004F10C0325F813003146286A03F0DAFD98
:102140000134032C0BDC6B6AA342D5DC6B6AA3421F
:10215000F6DC0221A140286A03F0CCFDF0E7F8BDCF
:102160000146002210460FE002F10C0331F8133053
:102170004FF47A7C0CFB03F302F1080C31F81CC01D
:1021800093FBFCF3184401324B6A9342ECDC70473A
:1021900008B5C0EBC0020B4B03EB8203DB688B423C
:1021A0000EDC084B03EB82031B698B4201DAFF2034
:1021B00007E0054B43F82010FFF7E8FC002000E0A3
:1021C000FF2008BD1076000808000020014B53F8DE
:1021D0002000704708000020024B53F820004011F7
:1021E000704700BF0800002008B5054B53F82000D9
:1021F00004F042FC4FF0745104F092FC08BD00BFA3
:10220000080000204901024B43F82010704700BF2E
:1022100008000020014B43F8201070470800002000
:1022200010B5044608464FF0844104F079FC04F0F0
:10223000C7FD024B43F8240010BD00BF080000207A
:1022400070B506460024074D282C09DC3146686825
:1022500000F05AFB10B101341C35F5E7E0B270BD57
:102260002A20FCE7107600080023064A282B07DC0A
:10227000118B814202D001331C32F7E7D8B270478C
:102280002A20704710760008C0EBC000014B03EB1A
:10229000800070471076000838B50024074D01E033
:1022A00001341C35282C07DC2B8B002BF8D06969F6
:1022B000E0B2FFF7AFFFF3E738BD00BF10760008CC
:1022C000014B1954704700BF04010020024A135CFF
:1022D0000B431354704700BF04010020024A135CF3
:1022E00023EA01031354704704010020014B185CDA
:1022F000704700BF04010020C0EBC000024B03EB9D
:102300008003987E704700BF107600084DF6C940E4
:10231000704708B52021806803F03DFE08BD08B570
:10232000806803F030FE08BD10B504464368597A52
:10233000586803F039F9636804F12A02597A586839
:1023400003F044F963688022597A586803F04EF923
:102350006368597A586803F01EF910BD70B50446D9
:102360000D46514901605149016085600373026166
:10237000012101754175817500228261C26180F879
:102380002020426280F828109DF8101080F8291053
:1023900047494160032A07D861680868A84203D00A
:1023A0001C3161600132F5E7424A1460002B74D0A1
:1023B00062685069002B73D063681B8B0222032173
:1023C00003F0C6F94FF4E131284603F089FD0821F6
:1023D000284603F099FD4FF40051284603F09DFD77
:1023E0000C21284603F0A5FD0021284603F09BFDA3
:1023F0000021284603F0A3FD284603F0B6FD284639
:1024000003F0B8FD6368197A586803F06FF86368E1
:10241000197A586803F0B6F863682E1D3246197AA7
:10242000586803F0CAF863680022197A586803F004
:1024300087F863680022197A586803F075F86368B2
:10244000197A586803F088F86368597A586803F075
:102450004DF863683246597A586803F0AEF86368FD
:102460000022597A586803F06BF863680022597AA1
:10247000586803F059F86368597A586803F06CF8A3
:102480006368597A586803F086F82046FFF74CFFD6
:10249000284603F05AFD204670BD6268D06889E77F
:1024A00063681B8A8AE700BF947A0008A07A000854
:1024B000A47A00083001002038B50D460469437D38
:1024C0003BB1216839B1284600F01EFA18B1083432
:1024D000F7E7002401E023680BB1204638BD1C4615
:1024E000FBE738B504460D4601E0002373B163688D
:1024F0000222197A586803F00EF80028F5D194F8F2
:1025000028300BB10023F1E70123EFE76368197A64
:10251000586803F049F86368AAB2197A586803F05A
:1025200065F8636894F82020D201A8322244023270
:10253000197A586803F04AF863680222197A5868D1
:1025400002F0E4FF6368197A586803F024F894F8FD
:102550002030B3FA83F35B0984F82030002384F839
:10256000283038BD10B50446837D73B10A2910D0D8
:10257000436A7F2B0DD090F8202000EBC2121A4442
:1025800082F8AA100133436210BD806803F0E2FCB8
:10259000FAE794F82030626A04EBC313134483F81B
:1025A000AA10511C2046FFF79CFF00236362EBE753
:1025B00010B50C46802A28BF802211464FF0000C2F
:1025C0000AE090F8203014F80CE000EBC3136344E9
:1025D00083F8AAE00CF1010C8C45F2D3FFF781FFE0
:1025E00010BD38B505460C46084600F0A4F9024671
:1025F00021462846FFF7DCFF38BD000010B5044631
:10260000084600F0EBF900F0D0F9237D83420DD0AD
:1026100000236375237B0BB3626850690BB3636857
:102620001B8B0122002103F093F810BD0123637579
:10263000237B6BB1626850696BB163681B8B0222AC
:10264000032103F085F808492046FFF7CAFFECE7AD
:102650006268D068F0E763681B8AF0E76268D06858
:10266000DCE763681B8ADCE7F872000830B585B0E8
:102670000446084600F0B2F90378302B11D0322B13
:102680000DD04FF46125637D73B92946A06803F02E
:1026900027FC0021A06803F040FC05B030BD0D4DC3
:1026A000F1E74FF4E135EEE70A22294601A800F0F0
:1026B00051F909492046FFF794FF08492046FFF7E2
:1026C00090FF01A92046FFF78CFF05492046FFF740
:1026D00088FFDAE710552200B8700008C0700008C3
:1026E000B875000810B50446084600F077F903787D
:1026F00023B1303B18BF012384F8293094F82930E6
:1027000023B105492046FFF76CFF10BD0349204661
:10271000FFF767FFF9E700BFD0700008DC70000822
:10272000F8B504464368597A586802F058FF0646DF
:10273000C0F1800558B92046FFF7F6FD07E05A1CA6
:10274000E261234493F82A10A06803F003FC94F894
:10275000293013B1E369AB42F1DB0821A06803F033
:102760001AFCE0B9002D28DDC6F17F06264496F854
:102770002A300A2B17D00D2B15D094F82A30212B94
:102780001BD1A369CBB12046FFF7CEFD0023E36147
:10279000A3695B6804F5D571204698470DE0A068F1
:1027A00003F0F1FBDEE76368597A586802F0FCFE3B
:1027B000012D03DC2046FFF7B7FDF8BD63190022A9
:1027C00083F82A20E26104F12A072021384600F02C
:1027D000B9F8064603781BBB0A21384600F0B2F868
:1027E0000646002384F8AA313378FBB10023337006
:1027F000A3612649384600F087F80646E0B904F59B
:10280000D5712046FFF7FAFEA369A3B3A06803F0D1
:10281000BEFBA3695B6804F5D57120469847C9E7FC
:10282000411C04F5D57000F07DF8DDE70D21384638
:1028300000F088F80646D9E71549384600F064F8F4
:10284000064628B904F5D5712046FFF70FFFDBE7F0
:102850001049384600F058F8064628B904F5D571F5
:102860002046FFF73FFFCFE739462046FFF724FE1B
:10287000A0612E46C8E7012E9CDD637D002B99D018
:1028800005492046FFF7ADFE94E700BFE870000859
:10289000F4700008007100080871000808B5044BC6
:1028A0001B681A681268C1B21846904708BD00BF7D
:1028B00030010020704708B500F0D8FC08BD0000CA
:1028C00000B583B00649D1F8F027D1F8EC37D1F83C
:1028D000E8170091034900F0E7FA03B05DF804FB44
:1028E00000F0FF1F2471000810B50446FFF7D4FC68
:1028F0000249204600F0D8FA10BD00BF3871000828
:1029000008B501F041FE08BD431E013913F8010F5F
:1029100011F8012F10B10AB19042F7D0801A18BFF8
:1029200001207047013911F8013F0BB9037070475E
:1029300000F8013BF7E7034600201A5C02B9704734
:102940000130FAE70346184613F8012B0AB18A4210
:10295000F9D17047002970B518DA2D23012400F849
:10296000013B4942034691FBF2F602FB161130315E
:102970001970311E1D4603F10103F4DC00221A70A8
:10298000024695420AD8241A181904E004D13023CB
:1029900041700370012070BD0024E3E711782E78A8
:1029A00002F8016B05F80119EBE730B503782D2B20
:1029B00011D14FF0FF34013000210A25431E01E000
:1029C00005FB012113F8012F303AD0B20928F7D9BD
:1029D00004FB01F030BD0124EEE7000010B5134CFC
:1029E000014610F8012BA2F10A03DBB2162B19D80D
:1029F00024FA03F3DA07F3D40846FFF79CFF013803
:102A00000844814204460AD2237801380A3BDBB2EB
:102A1000162B04D8054A22FA03F3DB07F1D400236E
:102A2000637001E0002AE7D1084610BD09004000AC
:102A3000002310B5934200D110BD51F8234040F857
:102A400023400133F6E7013A00D2704740F8041BF7
:102A5000F9E72DE9F0410D4616461F4601608280D8
:102A60000024847103F1FF3CBCF1080F06D8DFE8B5
:102A70000CF009320F15191F23282D0000240227FE
:102A8000A0462BE00123837100240227A04625E005
:102A90000124847102274FF000081FE00024012761
:102AA000A0461BE00123837100241F46A04615E0C9
:102AB00000242746A04611E0002427464FF00308D3
:102AC0000CE0012427464FF0030807E0002402270A
:102AD0004FF0030802E001244FF000083CB93346F0
:102AE0003A464146284602F033FEBDE8F0813146C1
:102AF000284602F067FEF2E770B50C1EACBF01235A
:102B00004FF0FF335C430133064608BF2D234FF0DF
:102B1000640208BF06F8013B611104F01F0405467A
:102B2000544330460A22FFF715FF2E226411092C68
:102B30003254D8BF302206EB0003D8BF5A7021466A
:102B40004FF00A02CCBF581C981CFFF703FF284621
:102B500070BDF0B503782D2B17D14FF0FF36013043
:102B600000244FF00A0C02E018460CFB0454034604
:102B700013F8012BA2F13005EFB2092FF4D9AAB94D
:102B80008C40144406FB04F0F0BD0126E8E78B40BE
:102B900003EB650393FBF5F30CFB05F51A4410F802
:102BA000013F303BDFB2092FF1D9E9E70A250022C6
:102BB000AC46F4E72DE9F04105460F46161E02DD4E
:102BC0000A46002108E04FF0200813F0010414D059
:102BD000002422E00131013210780028FAD1B142FC
:102BE00006DA761A13F0020F04D14FF02008ECE752
:102BF0000026F7E74FF03008E7E7002E0DDD2B68E1
:102C00001B684146284698470134013EF5E72B688A
:102C10001B68284698470134013739780029F6D1D6
:102C200006E02B681B684146284698470134013E60
:102C3000002EF6DC2046BDE8F0812DE9F04184B09D
:102C40000746DDF828800C9859B11E460C4613B192
:102C50000A2A13D0002600238DF80D300DF10D0542
:102C600018E030238DF8003000238DF801300B9BE5
:102C7000424669463846FFF79DFF32E0002901DBF6
:102C80000026E8E74C420126E5E7303105F8011D52
:102C9000B4FBF2F44CB1B4FBF2F102FB114109298F
:102CA000F3DDA0F13A031944EFE79EB1B8F1000F4C
:102CB0000BD00B9B13F0020F07D03B681B682D2134
:102CC0003846984708F1FF3804E02D2305F8013C09
:102CD000013D00260B9B424629463846FFF76AFF16
:102CE000304404B0BDE8F08108B50846FFF7D6FDD2
:102CF00008BD70B584B0044615461E466846FFF709
:102D0000FBFE33462A4669462046FFF753FF04B0D0
:102D100070BD000070B588B006460C4605920025CF
:102D200099E0A21C0123A3E0013443F002032278BE
:102D3000302AF9D00022217839291CD9782900F2CB
:102D400089805829C0F086805839202900F2828075
:102D5000DFE801F043808080808080808080806A0E
:102D60002580618080808080808080808080801A43
:102D700080528080340030296CD302EB82023039DB
:102D800001EB42020134D6E70599081D0590096858
:102D900001B93A493046FFF70DFF05445AE005995D
:102DA000081D05900968612002900193009201239B
:102DB0000A223046FFF741FF05444BE00599081D04
:102DC000059009686120029001930092002310226F
:102DD0003046FFF732FF05443CE00599081D059099
:102DE000096841200290019300920023102230468E
:102DF000FFF723FF05442DE00599081D059009689C
:102E0000612002900193009200230A223046FFF7CE
:102E100014FF05441EE00599081D05900968304619
:102E2000FFF767FF054415E00599081D059009683F
:102E30008DF81C1000218DF81D1007A93046FFF7F2
:102E4000B9FE054406E0144633681B682178304615
:102E5000984701350134237863B1252BF4D1621CE6
:102E600063783BB1252BEED02D2B3FF45AAF0023D6
:102E700014465CE7284608B070BD00BFAC7100087E
:102E80000FB400B583B004AA52F8041B054B01939C
:102E9000009201A8FFF73EFF03B05DF804EB04B019
:102EA000704700BF8C7B00080EB400B582B003AA47
:102EB00052F8041B0192FFF72DFF02B05DF804EBFE
:102EC00003B07047114B124A1360991C114A1160EC
:102ED000191D114A1160991D104A116003F1080172
:102EE0000F4A116003F10A010E4A116003F10C014F
:102EF0000D4A116003F10E010C4A116003F110013B
:102F00000B4A116012330B4A13607047DC0100203A
:102F1000D8010020D4010020D0010020CC010020E5
:102F2000C8010020C4010020C0010020BC01002015
:102F3000B8010020B401002070B582B0334B93E893
:102F4000030002AB03E903000025002D2CDD304C0B
:102F5000304A0121204602F030FB2F4A0121204651
:102F600002F034FB4FF480720121204602F0E8FAAF
:102F70004FF480620121204602F0D6FA7822012126
:102F8000204602F033FB0121204602F0E5FA012140
:102F9000204602F0EAFA0121204602F0FCFA1F481E
:102FA00002F07AF802B070BDAE0002AB03EB85030D
:102FB00053F8084C204602F02DF8204602F02FF876
:102FC000204602F036F8204602F02EF80121204675
:102FD00002F00BF8204601F0CEFF204601F0E8FF9A
:102FE000204601F0F8FF73195A000D4B1A440A21CC
:102FF000204602F023F8204602F058F84FF46021F2
:10300000204601F0CBFF01359FE700BF907B000811
:10301000000002404C240140DC010020002401405B
:10302000CC020020884205DD914209DC90420ADD95
:1030300010467047904206DC914203DD104670470F
:10304000084670470846704730B583B004680025CD
:103050000BE0228DA18A2088FFF7E4FF02AB03EB8F
:10306000450323F8080C01353C34032DF1DDBDF890
:103070000000BDF802301844BDF804301844BDF813
:1030800006301844C0F38F0003B030BD08B50F4BB5
:1030900098420BD003F58063984211D0A3F50063EA
:1030A000984205D1072903DCC8B204E0012903DDF9
:1030B00001F06AFF102008BDC9B20831C8B2FAE7B2
:1030C0000529F5DCC9B20A31C8B2F4E7000C0140A9
:1030D00070B504460D461646012393409BB200226C
:1030E0001146284602F034FB2468054BE41A6410AC
:1030F00031462846FFF7CAFFA4B2024B185570BDEF
:10310000DC010020CC02002008B5FFF7DBFE08BD83
:1031100008B502F0E5F900F5FF3000F2FF1080027B
:1031200008BD2DE9F043ADF2044DFFF7F1FF07466E
:10313000024600234FF0FF3403E052F8041B0C401A
:103140000133FF2BF9DD02F0AFF94FF480724FF03D
:10315000FF316846FFF777FC002500E00135282D98
:103160001AD8EEB23046FFF7C7F80028F6D130463D
:10317000FFF78AF880463046FFF7B8F80DEBC5092F
:1031800089F80300B8F818302DF835303046FFF7CD
:103190001DF8C9F80400E1E7FE21684602F092F943
:1031A000FE9002F0AFFAB4F1FF3F01D100240AE033
:1031B000384602F063FAF9E75DF8241007EB840063
:1031C00002F0BAFA0134FF2CF6D902F0A7FAFE9801
:1031D0000DF2044DBDE8F083F8B5FFF799FF064600
:1031E00002F062F9FE21304602F06CF9D6F8F833AD
:1031F000834201D1002503E04FF0FF3019E0013593
:103200007E2D15D836F83500FFF72EF804462A280B
:10321000F5D0FFF771F80028F1D106EBC507796802
:103220002046FEF7F7FFF9782046FFF749F8E6E772
:103230000020F8BD014B1860704700BFD802002085
:1032400008B5074B03EBC10292F804C053F83130C4
:10325000044A52F82C2001460348FFF711FE08BD2E
:10326000A47B0008987B0008B471000810B50C4BD3
:103270005B680BB1002409E00A48FFF701FE10BDAE
:10328000074B13F83410FFF7DBFF0134032CF6D89B
:10329000034B03EBC40358680028F1D1EFE700BFEC
:1032A000AC000020C471000810B58AB00F4B01EBD0
:1032B000410203EB820453F82220646801EB4101D0
:1032C00003EB81039B68D0F8580200210891079115
:1032D00006930594049203910291019100910B468B
:1032E000012201F0F5FE0AB010BD00BFD07B00083E
:1032F000F0B583B004460D4616461F460121D0F8AE
:10330000580201F0F8FF019600970023B5F5006F11
:1033100034BF002201222946D4F8580201F0F0FF00
:10332000002805DBD4F85432002B17DC03B0F0BDC5
:10333000D4F85432132BF5DC03F1110204EB021222
:1033400055609760316804EB0312C2F81C11716874
:10335000C2F820110133C4F85432E3E70121D4F854
:10336000580201F0C4FFE1E7012801DD00207047A9
:10337000014B53F820007047DC02002030B58BB0C1
:1033800004460D460AE09DF8213006AA0999204618
:1033900000F0A6FA02F052FCC4F8F80000230593EE
:1033A00006AB04930DF12103039308AB02930DF1D7
:1033B000220301930DF12303009309AB0122E9B22B
:1033C000D4F8580202F013F80028DCD10BB030BD5D
:1033D00030B583B0044600F58A7504E0D4F8543261
:1033E000013BC4F85432D4F85432002B17DD03F1FA
:1033F0008053013B1A0105EB0313A95803F108029E
:1034000001921B7900930023B1F5006F34BF0022B5
:103410000122D4F8580201F073FF0028DEDAD4F854
:1034200054320BB103B030BD0121D4F8580201F081
:1034300062FFF7E7F0B585B00E4615461C461068EA
:10344000B3F800C05A889B88E7885B019BB25201A1
:1034500092B24FEA4C1C1FFA8CF14FF0010CCDF8E0
:1034600008C000EA0C0CCDF804C07F01BFB2009781
:1034700001F020FF002333602A6801322A60E380D4
:10348000A3806380238005B0F0BDF0B585B00F4602
:1034900015461C461068B3F800C05A889B88E68819
:1034A0005B019BB2520192B24FEA4C1C1FFA8CF1A5
:1034B0004FF0010CCDF808C000EA0C0CCDF804C0A8
:1034C0007601B6B2009601F0E5FE00233B602A6863
:1034D00001322A60A380238040F2FF73E38063807F
:1034E00005B0F0BD70B582B00E4615461C4610689A
:1034F0001968C9005A68D20001230093034042F0C2
:10350000040241F0040101F0E5FE002333602A6863
:1035100001322A606360236002B070BD30B58BB0A9
:103520000546002308930993474906AA03C982E880
:10353000030004930593039302930193D5F8582253
:10354000424B9A420AD0A3F58063D3F8003AC3F302
:10355000052300930024C2F81C4221E00023F8E771
:1035600004F11E0205EB8202516871B3029A501CED
:1035700002900DF1280C0CEB420C2CF8103C02329E
:1035800002920AAB03EB400020F8101C039B042BB3
:1035900024D0029B022B28D0019B022B2CD001347B
:1035A000D5F8F430A3422EDD05EB84035B68B3F558
:1035B000006FD5D3019A23F060430AA901EB820181
:1035C00041F8183C01320192E0E7039A0AA901EBA5
:1035D000420121F8083C01320392D7E708AB6A4662
:1035E00003A92846FFF726FFD3E706AB6A4602A9E0
:1035F0002846FFF74AFFCFE704AB6A4601A92846F1
:10360000FFF770FFCBE7039B002B07DC029B002B2F
:103610000BDC019B002B0FDC0BB030BD08AB6A4606
:1036200003A92846FFF706FFF0E706AB6A4601A9A3
:103630002846FFF72AFFECE704AB6A4601A92846B3
:10364000FFF750FFE8E700BF0C7C00080064004073
:10365000F8B504460D4616461F4600F0E3F8544BF5
:1036600023600023C4F85432C4F85852514B9D4291
:103670002FD003F580639D4258D1002F00F0828047
:103680004D4D202302220021284602F061F820211E
:10369000284602F097F8402302220321284602F030
:1036A00057F8402002F0ECFCF021402002F0F4FC3E
:1036B000412002F0E5FCF021412002F0EDFC3F202A
:1036C00002F0DEFCF0213F2002F0E6FC3B4B5C60A8
:1036D0002CE0002F41D0384D4FF48073022200219E
:1036E000284602F035F84FF48071284602F06AF857
:1036F0004FF4007302220321284602F029F8142017
:1037000002F0BEFCF021142002F0C6FC152002F0ED
:10371000B7FCF021152002F0BFFC132002F0B0FC32
:10372000F021132002F0B8FC244B1C60D4F858029E
:1037300001F0C2FC31462046FFF7B6FD2046FFF7F8
:10374000EDFE0221D4F8580201F0D1FD1021D4F889
:10375000580201F0CCFD2046F8BD194D4FF400632E
:1037600002220021284601F0F3FF4FF400612846B1
:1037700002F028F84FF4805302220321284601F07A
:10378000E7FFBCE70C4D4FF480530222002128468E
:1037900001F0DEFF4FF48051284602F013F84FF499
:1037A000005302220321284601F0D2FF79E700BF2F
:1037B000C47B000800640040000C0140DC020020D3
:1037C0000008014008B50020FFF7CEFD0021FFF7FB
:1037D000D5FD08BD08B50020FFF7C6FD0121FFF7A4
:1037E000CDFD08BD08B50020FFF7BEFDFFF7F0FDD9
:1037F00008BD08B50120FFF7B7FD0021FFF7BEFDAA
:1038000008BD08B50120FFF7AFFD0121FFF7B6FDA8
:1038100008BD08B50120FFF7A7FDFFF7D9FD08BDDA
:1038200070477047084B03600023C0F8F430C0F8BD
:10383000FC3005E003F14002044940F82210013356
:10384000042BF7DD704700BF1C7C0008CC00002073
:10385000D0F8FC30042B01DD0020704703F140025A
:1038600040F822100133C0F8FC300120704738B511
:10387000D0F8F4501D2D0BDD002038BD01339D42E2
:1038800008DD00EB830464688C42F7D10020F4E784
:103890000023F4E700EB8503596005F11E0300EBFC
:1038A00083035A600135C0F8F45003689B68984759
:1038B0000120E2E738B505460024C0F8F44003686B
:1038C0009B68984707E004F1400355F8230003681C
:1038D0005B6898470134D5F8FC30A342F3DC38BD6F
:1038E0002DE9F8430546894690461F4600240AE024
:1038F00004F1400355F8230003681E683B46424626
:103900004946B0470134D5F8FC00A042F0DCBDE8E0
:10391000F88370B5054600F1300634460BE034F804
:10392000043BC3F3C02123F40063002203EB417185
:103930006868FFF79CFFA31B242B02DCA378322BC3
:10394000EDD170BD2DE9F04182B0054600F10807C8
:103950003E46F31B242B00F39380B378322B00F008
:103960008F80002300930193B37803EB4304A400FA
:1039700058342C441AE0C0F307231B0443EA0063C5
:10398000C0F3074243EA022343EA1063E2791F2AA5
:103990003DD8C2F11F0223FA02F2009B13430093A9
:1039A000647A04EB4404A40058342C44637AFF2B5B
:1039B0005DD0354B1B78002B62D12079FEF714FCCB
:1039C0000146206803F0ACF8804694F9060003F045
:1039D00053F8414602F09CFF03F0F2F994F908C055
:1039E0008CEAEC71A1EBEC71C9B24FF0FF328A4066
:1039F00020EA0200BCF1000FBDDBE2791F2A20D9CA
:103A0000203A00FA02F2019B13430193C8E7944461
:103A1000BCF11E0F07DDC2F13F0223FA02F2019B47
:103A200013430193BCE7A2F11F0003FA00F00099D1
:103A300001430091C2F13F02D340019A1A4301921F
:103A4000AEE702EB0C03202B05DC00FA02F2009B30
:103A500013430093A4E700FA02F1009B0B43009389
:103A6000C2F12002D040019B0343019398E76868AC
:103A700003685C6808236A4636F8041BA04768E7B9
:103A800002B0BDE8F08100BFE402002010B501B330
:103A900002F10C0E00EB8E0E0A2A45D89EF8021099
:103AA000322943D001EB410C4FEA8C0C0CF1580C3D
:103AB000844400249CF80910FF2933D073B1013BE2
:103AC000DBB201EB410189005831644600EB010C87
:103AD000F0E702F1020E00EB8E0EDDE72CB1617211
:103AE000FF238CF8093001201FE0322904D08EF822
:103AF0000210F5E70133DBB29918092904DC0EEB5B
:103B0000830189783229F5D1013BDBB20EEB8302C8
:103B100091788EF802103EF82330AEF80030322350
:103B20009370DDE7002000E0002010BD0020FCE7DE
:103B3000F8B50C4600F1080600231A461F46194640
:103B40003FBB35460022A5EB060CBCF1240F27DC59
:103B500095F802C0BCF1320F22D00CEB4C0E4FEAAC
:103B60008E0E0EF1580E8644002309E00133DBB2BD
:103B70000CEB4C0C4FEA8C0C0CF1580C00EB0C0EBF
:103B80009EF809C0BCF1FF0F06D0BEF804E0A645C0
:103B9000ECD157B10020F8BD0132D2B20435D2E7E2
:103BA00000F130060F460121CAE7FFF76FFFF2E789
:103BB000F0B5089F00243C7000F10806002C42D1AB
:103BC0003546AC1B242C38DCAC78322C35D004EBD9
:103BD000440E4FEA8E0E0EF1580E864407E00CEBB1
:103BE0004C0C4FEA8C0C0CF1580C00EB0C0E9EF8B0
:103BF00009C0BCF1FF0F1ED0BEF804408C42EED1CC
:103C00002988C1F3C020116021F40061116041EAEC
:103C1000407111609EF807201A709EF90820059BDC
:103C20001A70DEF80020069B1A609EF90620079B9A
:103C30001A700120F0BD0435C3E73C7801253D70C2
:103C400000F13006BAE70020F4E710B48446019C86
:103C5000D9B102F10C0100EB81010A2A27D88A7838
:103C6000322A26D002EB4202920058320CEB0200BC
:103C7000427AFF2A18D063B1013BDBB202EB420269
:103C8000920058320CEB0200F2E7911C00EB81012C
:103C9000E3E70B88C3F3C022236023F400632360AF
:103CA00043EA4273236000E0002010BC704700200C
:103CB000FBE70020F9E72DE9F04385B0064688468A
:103CC00000F1080900273B462CE02B88C3F3C020F5
:103CD00023F40061029794F906300193236800935E
:103CE00094F90830E27941EA40712079C047647A5A
:103CF00004EB4404A40058343444637AFF2BE4D129
:103D00000435A5EB0903242B08DCAB78322B05D056
:103D100003EB4304A40058343444EEE706F13009C1
:103D20003B4601270BB94D46EBE705B0BDE8F083F4
:103D3000002306E001EB83024FF0320C82F802C050
:103D40000133092BF6DD002307E003EB430200EB10
:103D50008202FF2182F861100133322BF5DD7047BA
:103D600010B5044600F10801FFF7E2FF04F130014D
:103D70002046FFF7DDFF6068FFF79CFD10BD2DE9D1
:103D8000F041884615461F46002426460AE028686A
:103D900001F092FB064655F8041B08EB840001F085
:103DA000CBFC0134BC42F2DB3046BDE8F081084672
:103DB00000E00430431A242B0ADC8378322B05D030
:103DC0000388534033F40063F3D102E000207047CE
:103DD000002070474B4B1B7803B170472DE9F04131
:103DE000054616460A4600F13001FFF7E0FF0028BD
:103DF00000F08580837803EB4304A40058342C44FE
:103E000042E01F2B53D83068C0F30722120442EA65
:103E10000062C0F3074742EA072242EA1062C3F198
:103E20001F03DBB201208840013822FA03F3184057
:103E300002F01EFE074694F9060002F01DFE394608
:103E400002F066FD0146206802F06AFE074620790E
:103E5000FEF752FA20B12079FEF74EFA012849D137
:103E6000B4F804804FF08441384602F059FE02F065
:103E7000A7FF01465FFA88F0FEF78AF9647A04EB3F
:103E80004404A40058342C44637AFF2B37D0E379E0
:103E900094F9082082EAE271A1EBE271C9B2002A2A
:103EA000AFDB1F2B18D97268203BDBB2BAE71A448C
:103EB0001F2A03DD7068203BDBB2A5E75B1ADBB28B
:103EC0000133DBB23068D8407268C3F120039A40F6
:103ED00010434B1EDBB297E71A44202A01DC3268FC
:103EE000A0E73268DA407068C3F1200398400243CB
:103EF000002397E739462079FEF792F9BEE7BDE83F
:103F0000F08100BFE40200202DE9F8439DF82080F5
:103F10009DF92460002E79D004460D461746994637
:103F200086EAE673A3EBE673DBB2202B71D8002E92
:103F30000CDD08EB0603402B6EDC4A462946204682
:103F4000FFF735FF844668B100221DE0B8F13F0F4E
:103F500065D84FFA88F33344B3F1FF3FEDDA6FF0E1
:103F6000010051E00021092907DC05EB81039A7863
:103F7000322A01D00131F6E79C46BCF1000F51D046
:103F8000ACF80090E0E70132312A07DC02EB420393
:103F900004EB830393F86130FF2BF4D1322A44D031
:103FA0009CF8023000210AE003EB430189005831FC
:103FB000214403EB430304EB830393F86130322B7A
:103FC000F2D102EB420304EB8304A4F85C700A9B79
:103FD000A3659DF92C3084F85E3084F85F8084F806
:103FE0006060322384F8613019B14A722B46002098
:103FF00004E08CF80220F9E7013004335A1B242A2C
:1040000002DC9A78322AF7D1BDE8F8836FF002001B
:10401000FAE76FF00200F7E76FF00100F4E76FF0E6
:104020000100F1E76FF00300EEE76FF00400EBE74B
:10403000B2F5006F12D210B584B09DF92040039400
:10404000079C02949DF918400194009313460A4678
:1040500000F10801FFF758FF04B010BD4FF0FF302A
:10406000704770B584B005461446C2F3407022F024
:104070000052B2F5006F19D29DF928600396099E8F
:1040800002969DF920600196009342EAC0230A46F9
:1040900005F130012846FFF737FF0646002221468A
:1040A0006868FFF7E4FB304604B070BD4FF0FF36A0
:1040B000F9E72DE9F04F89B08346059206938A46C9
:1040C000079131E0B4F9020002F0D6FC002303931B
:1040D0000290CDF8048000953B46049A059930463D
:1040E000FFF712FF0634A4EB09032A2B1ADC94F91C
:1040F0000530002B16DD2088FEF7B6F80490DBF8BB
:104100000060BAF80070257994F90580069B002BB1
:10411000D8D0B4F9020002F0AFFC4FF0745102F0B5
:10412000FFFCD3E70AF1320A079BAAEB0303B3F5BE
:10413000E17F0ADCBAF800104FF6FF73994204D011
:104140000AF102052C46A946CDE709B0BDE8F08F7B
:1041500008B501F0C5F900F5FF3000F5FF708002E9
:1041600008BD70B582B005460190FFF7F1FF044627
:10417000D0F8E86301F098F9FA21204601F0A2F99D
:10418000864202D0002002B070BD002305F1080273
:10419000214601A8FFF78DFF012305F1300204F548
:1041A000FA7101A8FFF785FF0120ECE7F8B5054695
:1041B0000F460E460EE02079FEF766F8038BA380CB
:1041C000647A04EB4404A40058342C44637AFF2B33
:1041D000F1D10436F31B242B08DCB378322B05D045
:1041E00003EB4304A40058342C44EFE7F8BDF8B5C2
:1041F00005460F460E460DE0A088FEF735F8A08074
:10420000647A04EB4404A40058342C44637AFF2BF2
:10421000F2D10436F31B242B08DCB378322B05D003
:1042200003EB4304A40058342C44EFE7F8BD00002E
:10423000F0B583B00546FFF78BFF064602462A4BD2
:104240000121197000234FF0FF3403E052F8041BE2
:104250000C400133FF2BF9DD01F026F901F052FA91
:10426000022001F045FAB4F1FF3F38D105F108070B
:1042700039462846FFF79AFF05F1300421462846C3
:10428000FFF794FF0A233A4631462846FFF777FDA9
:104290000A23224606F128012846FFF770FD019007
:1042A000962305F1580206F150012846FFF767FDF5
:1042B0000190012301AA06F52D712846FFF75FFD45
:1042C00001F02CFA39462846FFF791FF214628468F
:1042D000FFF78DFF044B00221A7003B0F0BD30468B
:1042E00001F0CCF9C2E700BFE4020020F8B50546B2
:1042F000FFF72EFF0446D0F8B46201F0D5F8AA21EA
:10430000204601F0DFF8864203D02846FFF729FF58
:10431000F8BD05F108070A2221463846FEF788FB5A
:1043200005F130060A2204F128013046FEF780FB31
:10433000962204F1500105F15800FEF779FB394649
:104340002846FFF754FF31462846FFF750FF01206B
:10435000DEE7000038B50446084615460D4B2360DD
:104360000D4B236061602146FFF772FA04F10801EA
:104370002046FFF7DDFC04F130012046FFF7D8FCB2
:1043800025B92046FFF7C5FA204638BD2046FFF77D
:10439000ADFFF6E7146E0008407C00082DE9F041FF
:1043A00084B00C4615461E469DF83070FDF76CFF34
:1043B000D0F804801449154B1868FEF775FDE7B175
:1043C0001349124B1868FEF76FFD4FF084410A98AD
:1043D00002F0A6FB0D4B1F689DF92C30039302F0F1
:1043E000EFFC029001960095234642460949384663
:1043F000FEF75AFD04B0BDE8F0810749034B186889
:10440000FEF752FDE1E700BF24720008EC02002035
:104410002C720008347200083072000870B504462F
:104420000846FEF7DBFA05462021FEF78BFA0378F3
:10443000A3B1002300F8013B0521FEF78AFB0646E5
:104440002846FDF7FDFE2A2812D03146FDF7A0FED2
:1044500048B90A492046FEF727FD03E008492046EF
:10446000FEF722FD70BD07492046FEF71DFDF9E766
:104470002A4605492046FEF717FDF3E76472000857
:10448000487200087072000888720008F8B5074684
:104490000846FEF7A3FA05460BE0FDF797FE024635
:1044A0000E493846FEF700FD254605F8016B2C2E17
:1044B00012D12C212846FEF745FA0446067800233F
:1044C00003702846FDF7BCFE2A28E6D12A46044997
:1044D0003846FEF7E9FCE7E7F8BD00BFA072000828
:1044E000A87200082DE9F04107460846FEF776FA63
:1044F00080462021FEF726FA03789BB10446064643
:10450000002306F8013B4046FDF79AFE05462A289F
:1045100029D06378212B0AD07E2B08D02F2B06D0F0
:10452000002406E013493846FEF7BEFC0FE0A61C47
:10453000012431461048FEF7E7F950B974B1012162
:104540002846FDF7CBFE0D493846FEF7ADFCBDE829
:10455000F0810B493846FEF7A7FCF8E70121284611
:10456000FDF7B4FEEFE7424606493846FEF79CFCED
:10457000EDE700BFC4720008D4720008EC720008B6
:10458000DC720008887200082DE9F04F8BB00746F6
:104590000846FEF723FA0378059346493846FEF7A6
:1045A00083FC00264FF0200822E0434A0392029346
:1045B0000190CDF800A04B46424640493846FEF7F0
:1045C00073FC2846FDF798FE20B12846FDF794FEBF
:1045D00001285AD1E2682369616920680296019036
:1045E000009137493846FEF75FFC4FF02C08013642
:1045F000282E51D8F5B22846FDF746FE0446284637
:10460000FDF774FE10F0010F02D0059B682BEED170
:10461000D4F80490D4F808A0B4F818B02846FDF7F0
:10462000D5FD0290CDF804B0CDF800A04B4642462F
:1046300024493846FEF738FC0DF11F0303930DF1B2
:104640001E03029309AB01930DF11D03009307AB09
:1046500008AA29461C480068FFF7AAFA0028B0D02B
:10466000DDF820809DF81C909DF91DA04FF084413D
:10467000099802F055FA02F0A3FB9DF91E309DF84F
:104680001F20002A91D0114A90E711493846FEF7C1
:104690000BFC4FF02C08AAE70E4BD3F8F0270E497D
:1046A0003846FEF701FC0D493846FEF7FDFB0BB01E
:1046B000BDE8F08F10730008087300084473000809
:1046C000A873000814730008E802002000730008B3
:1046D0009473000800F0FF1FF8730008347400089A
:1046E0002DE9F0478AB0044600230593069307930B
:1046F000089309930846FEF771F90578702D39D0B3
:10470000632D45D02021FEF71DF90378002B48D0FA
:10471000FEF764F907462021FEF714F906460378F0
:104720000BB9642D44D1002306F8013B3846FDF750
:1047300087FD81463046FEF751F90646B9F12A0F4A
:104740003BD0642D3ED04FF000084FF07E5AB8F1B8
:10475000040F62DC20213046FEF7F4F807460378A8
:10476000002B3AD1B8F1020F37DC55492046FEF74D
:104770009BFB1AE0534B1B68002BFBD1514D2C6067
:104780005149524B1868FFF796FA00232B600CE052
:104790004E4B1868FFF7E4FA4D492046FEF784FBBC
:1047A00003E047492046FEF77FFB0AB0BDE8F087EB
:1047B00043492046FEF778FBF7E746492046FEF7D7
:1047C00073FBF2E74946414B1868FFF7B1F902461F
:1047D00041492046FEF768FBE7E700233B7030467F
:1047E000FEF7E3F8B8F1030F0BD00AAB03EB880335
:1047F00043F8140C781CFEF7F1F8064608F101089E
:10480000A5E710213046FEF7A4F902F035F94FF084
:104810005E5102F085F98246ECE7742D17D09DF9C0
:1048200024300293CDF804A09DF91C3000939DF82C
:104830001830059A494625480068FFF712FC431DC9
:10484000042B32D8DFE803F0262C201A14009DF93F
:1048500024300293CDF804A09DF91C3000939DF8FC
:104860001830059A494619480068FFF7E1FBE6E76A
:10487000059A1A492046FEF717FB96E7069A18494B
:104880002046FEF711FB90E7079A16492046FEF7EF
:104890000BFB8AE7059A14492046FEF705FB84E7DF
:1048A00012492046FEF700FB7FE7012806DD104B8A
:1048B000024610492046FEF7F7FA76E70E4BF7E777
:1048C00060740008EC0200209D430008E80200200C
:1048D0003C7400087474000888740008A074000810
:1048E000B4740008C8740008DC740008047500087B
:1048F0000C70000820750008FC72000810B5044612
:104900000C4B1B788BB172B60B4B1868FFF790FC01
:104910000A492046FEF7C8FAFEF703FC024662B6D3
:1049200007492046FEF7C0FA10BD0649FEF7BCFA5B
:10493000FAE700BFD0000020E80200204C75000814
:104940005C7500087875000810B5044672B6FEF76D
:1049500043FC62B638B92920FDF718F9044920460E
:10496000FEF7A2FA10BD03492046FEF79DFAF9E7CB
:10497000BC750008D075000808B501F079FB2DE979
:10498000F843054688461746002607E008F8060063
:10499000013623782C2B13D1BE4211D22C2128466C
:1049A000FDF7D0FF044690F80090002303702846DE
:1049B000FDF746FC254605F8019B2A28E6D1E8E7E5
:1049C0003046BDE8F88300002DE9F04184B006468A
:1049D0000846FEF703F80446FDF7E7FF804620216E
:1049E0002046FDF7AFFF03784BB10A2201A9013041
:1049F000FFF7C5FF07463046FDF791FC20E0194957
:104A00003046FEF751FA04B0BDE8F08104F110031E
:104A10006B4413F80C0CFDF7D9FB03462A461249E8
:104A20003046FEF741FA0134104DBC42EEDB10492E
:104A30003046FEF739FAB8F1FF3F01D008F1FF38F0
:104A40003046FDF766FC0028DDD1B8F1000F02DD2D
:104A5000084D0024E9E7B8F1FF3FD4D1054D00240B
:104A6000E3E700BFE8750008087600084073000817
:104A7000B8750008FC720008826DC36D9A42FBD0C5
:104A8000836D5A1C826503F03F03034419764FF08F
:104A9000FF3343617047A0F10400FFF7EDBF10B58D
:104AA0000446017C002201F5C0618068FEF7DFFE4C
:104AB000617C3F2900D910BD002201F5B061A068DA
:104AC000FEF7D5FEF7E7000010B5044608460D4B8B
:104AD00023600D4B63600D4B236014336360A16052
:104AE000E26001232374FF2262744FF0FF3262619F
:104AF00084F87C302146FEF7ABFE2046FFF7CFFF5F
:104B0000204610BD146E0008947A0008507C0008FE
:104B100008B501748068FEF7CDFE08BD10B50C46DF
:104B2000B1F80130B3F5A04F11D045F20102934224
:104B300036D045F20202934244D0802323700023F2
:104B4000237163710223A3710623E37110BD0A78F8
:104B5000402AEAD143230B70CB78032B16D8DFE829
:104B600003F002070C11354BD3F8E8374B60EDE743
:104B7000324BD3F8EC374B60E8E7304BD3F8F037E3
:104B80004B60E3E7FDF7C2FB6060DFE780230B705B
:104B900000230B714B7102238B710623CB71D5E778
:104BA0002378402BD2D14FF0FF3323716371002360
:104BB000A371E3714122227083654023C365E378CA
:104BC0004361C3E72378232BB7D160232370E378B5
:104BD000032B28D8DFE803F002171F2190F87C3060
:104BE00043B172B6C06808B1FFF722FBFEF799FA2D
:104BF00062B6ABE780232370002323716371A37136
:104C00000823E371A2E772B6FEF7E6FA62B629203E
:104C1000FCF7BCFF9AE701F02BFAFDF73DFB2920DA
:104C2000FCF7B4FF92E780232370002323716371A4
:104C30000223A3710623E37188E700BF00F0FF1F82
:104C40002DE9F04184B006460C46B1F80120C2F3CC
:104C5000C017CD7825B1013D05EBD575C5F34705E6
:104C600003AB00932B4602F03F023946F068FEF793
:104C7000ECFF80462378402B0DD0232B3DD08023A2
:104C800023700023237163710223A3710623E37150
:104C900004B0BDE8F08130B30079FDF7F5FA028B7E
:104CA000E37823B9039B636043232370F0E713F099
:104CB000010F09D098F8073042EA034298F908300A
:104CC00042EA03626260EFE71349D8F8000001F09E
:104CD00027FF02F075F820F07F4398F9062043EA99
:104CE00002636360E0E78023237000232371637114
:104CF0000223A3710623E371CAE70028BFD06368CB
:104D0000002BBCD1B4F801202B4602F03F023946FB
:104D1000F068FEF7BBFEBBE700007A440B78232B5C
:104D200000D070472DE9F04184B006460C46154688
:104D3000CB7883B94B68B3F1005F04D323F0005202
:104D4000B2F5006F03D273666023237019E04FF051
:104D5000FF3343660CE0476EB7F1FF3F01D0012BF4
:104D600012D096F97080B8F1000F01D0022B1DD03F
:104D7000802323700023237163710223A371062310
:104D8000E37104B0BDE8F081486880B2FDF76CFAC9
:104D9000A6F86C006368C3F3054386F86F30636858
:104DA0001B1686F870302828CED9E1E7606840F3FA
:104DB000170001F061FE154901F066FFB0666368F7
:104DC0001B1686F86E30A5B102930190CDF80080D5
:104DD00096F86F303A4696F86C10F068FFF741F994
:104DE000002386F870304FF0FF3373660028ABDA8B
:104DF000BEE702930190CDF8008096F86F303A46F6
:104E000096F86C10F068FFF713F9E9E700007A44B0
:104E100038B504460D460B7803F06002602A1CD0BA
:104E2000B1F80130B3F5005F45D003F47F42B2F52D
:104E3000045F40D0C16811B1B3F5405F70D019B1C3
:104E400043F20100834270D011B1B2F5445F72D0D9
:104E500029462046FFF762FE19E003F010030B70AD
:104E60000122072A0EDCE36DA16D5B1A402B09D0ED
:104E7000E36D591CE16503F03F0323441B7EAB54F3
:104E80000132EEE7E36DA16D5B1A402B09D0A068FB
:104E9000217C03685C6808232A4601F5B061A047BD
:104EA00038BD2B7843F001032B70C2F1080243EAAE
:104EB00042032B70EBE7E87803F47F42B2F5045F1E
:104EC0000CD0282822D82B78232B0DD0402BDED1D4
:104ED000FDF77CF9686043232B70D8E71B029BB277
:104EE0001844FDF7C1F9ECE76968FDF751F910B90D
:104EF00060232B70CBE780232B7030232B71002392
:104F00006B710923AB710623EB71C0E780232B7013
:104F100000232B716B710223AB710623EB71B6E793
:104F200000222946FFF7FAFEB1E701222946204672
:104F3000FFF7F4FEABE729462046FFF781FEA6E720
:104F400008B590F810C00CF5C06C8C4506D00B4627
:104F5000417C01F5B061994204D008BD1146FFF7CC
:104F600057FFFAE71378803B18BF012380F87430AD
:104F700053688367F1E78368DB075EBF836843F0AC
:104F80000103836070470000034AD2F8083443F4F9
:104F90000003C2F80834704700200140836823F4FE
:104FA00060230B438360836843F4801383607047FE
:104FB000836800F1080243F00803836013681B074D
:104FC000FCD47047836843F00403836070478068B3
:104FD000C0F38000704708B50246FFF7F3FF1046A4
:104FE000FFF7F5FF0028FAD108BD0022134610B5DF
:104FF00001FA02F403321E2A43EA0403F8D1002224
:10500000036101FA02F40332182A43EA0403F8D1D7
:10501000C36010BD836823F0010383607047436859
:1050200043F4807343607047836823F400638360B4
:105030007047836843F00203836070471029F0B51E
:105040000FD800276FF03B030124BC463E46E5B273
:10505000A94207D2013946EA0151C162C0F830C005
:105060004763F0BD062C09D8157803F13C0E05FA0C
:105070000EF52F43013401320533E8E7073D052DD6
:10508000157806D803F11E0E05FA0EF54CEA050C4C
:10509000F0E79D402E43EDE7836800F1080243F4FA
:1050A0008003836013685B02FCD47047836843F419
:1050B0008073836070470000044B98420CBF40F23D
:1050C000192040F21A2000F044BD00BF00640040E7
:1050D0002DE9F3410468884624F002040460046862
:1050E000964644F0010404604FF6FF749DF820C01A
:1050F0009DF824109DF828209DF83C609DF8407094
:105100000194019C051D013C019414B14468E4071D
:10511000F7D54468E4076ED50024C4610468B8F18B
:10512000000F4FD044F0800404600468BEF1000F0B
:105130004BD044F040040460002B49D0036843F096
:10514000200303600368BCF1000F45D043F0100357
:1051500003600368002942D043F00803036003683A
:10516000002A3FD043F004030360C369002F3CD002
:1051700043F00043C361C369002E39D043F080433C
:10518000C3610E9B0D99013BC3F309030B430C99BB
:10519000C2690B430B990B431343C361036823F0AC
:1051A000010303604FF6FF730193019B013B0193E1
:1051B00013B12B68DB07F8D4406800F0010002B09F
:1051C000BDE8F08124F08004AEE724F04004B2E7AB
:1051D000036823F02003B4E723F01003B8E723F0BB
:1051E0000803BBE723F00403BEE723F00043C1E755
:1051F00023F08043C4E70120E1E70000F0B501257A
:10520000234C9DF81C70D4F80066854046F00106DA
:10521000C4F80066D4F81CE6EE432EEA050EC4F886
:105220001CE639B3D4F80C162943C4F80C162AB37B
:10523000D4F804262A4300F1006000F6C840C4F800
:105240000426C0000360069A059B4360104BCAB158
:10525000D3F814262A43C3F8142627B1D3F81C2602
:105260002A43C3F81C26D3F8002622F00102C3F813
:105270000026F0BDD4F80C163140D6E7D4F8042649
:105280003240D8E7D3F814261640C3F81466E4E792
:105290000060004030B4BDF808409DF8105043EA6B
:1052A0000443029341EA024300220495114630BCB4
:1052B000FFF7A4BF30B4BDF808409DF8105044EA91
:1052C0000344049542EA01430294012230BC0021C8
:1052D000FFF794BF1FB5009201229DF81840CDE959
:1052E00001340B461146FFF789FF04B010BD436936
:1052F0000B4343617047436923EA010343617047ED
:105300002DE9F041804680689DF818E04501079E30
:105310002AD4D8F8080004012AD4D8F80800C0001C
:1053200050D54FF4D075022005EB080422B3C90014
:1053300041F0040145F808101BB1236843F0020353
:105340002360636823F00F03636062680EF00F034D
:10535000134363600EF1FF33072B2AD8DFE803F015
:105360002623201B1815120E4FF4C0750020DBE712
:105370004FF4C8750120D7E74905DBE70027F3792B
:1053800063F31F67B37963F31747737963F30F27E9
:10539000337963F307074FF0000CF37863F31F6C66
:1053A000B37863F3174C737863F30F2C337863F39C
:1053B000070CC4F808C0E760236843F001032360CA
:1053C000BDE8F0814FF0FF30FAE721B9C36843F040
:1053D0002003C3607047036943F0200303617047F3
:1053E00019B9C06800F0030070470069FAE72DE9B9
:1053F000F743DDF828900446DDE90E56FFF7F0FF8D
:105400000F4680464FF4E0714FF4D870CDE90001AB
:1054100002A901EB870151F808CC54F80C1004EBF9
:105420000C0011F0040115BF012189F8001089F862
:10543000001054F80C1016BF54F80C10490DC90890
:10544000196054F80C100B9BC1F3400119704168AE
:105450000C9B090A197041680D9B01F00F0119702E
:1054600016B143681B0C33808668C368C6F30721F6
:105470006970C6F30741A970C3F307212E702B7121
:10548000C6F307666971C3F30741C3F30763EE70A0
:10549000A971EB711AB139462046FFF796FF4046D5
:1054A00003B0BDE8F0830000024A936843F00103B3
:1054B0009360704700300240014B186018687047D5
:1054C00000300240002310B5044A8B4201DB106813
:1054D00010BD50F8234001331460F6E7003002405D
:1054E000014BB3F8E007704700F0FF1F14230022C0
:1054F000013903FB01039A60DA601A615A610F23D4
:10550000426889008B40134343607047013989002A
:105510008A40426070470139036889008A401A4214
:1055200014BF01200020704714230139594308306B
:105530000B5823F440630B500B5813430B50704728
:1055400014230139594308300B5823F440730B508E
:105550000B5813430B50704714230139594308303B
:105560000B5843F080030B50704714230139594303
:1055700008300B5843F020030B500B5823F48043A2
:105580000B50704714230139594308300B5843F02E
:1055900010030B50704714230139594308300B583E
:1055A00043F001030B50704714230139594308306D
:1055B0000B5823F001030B5070471423013903FBF0
:1055C00001008368DB0758BF02617047142301396B
:1055D00003FB01008368DB0758BF42617047142357
:1055E000013959430C30085880B2704714230139EF
:1055F00059430C300A50704738B5064DEC68FFF738
:105600006FFFB0F5007F84BFEB6C1C4304F03500E6
:1056100038BD00BF0020024038B504460D4600F0FA
:1056200085F8FFF75DFFB0F5007F124B17D9124ADE
:10563000944214D91A6D42F001021A65258000F0D7
:1056400075F8FFF74DFFB0F5007F0A4B0CD90A4AF9
:10565000944209D91A6D22F001021A6538BD1A69FF
:1056600042F001021A61E9E71A6922F001021A61A7
:10567000F4E700BF00200240FFFF070810B5044612
:1056800000F054F8FFF72CFFB0F5007F164B1BD944
:10569000164A944218D91A6D42F002021A655C65E6
:1056A0001A6D42F040021A6500F040F8FFF718FF4B
:1056B000B0F5007F0C4B11D90C4A94420ED91A6DEB
:1056C00022F002021A6510BD1A6942F002021A6144
:1056D0005C611A6942F040021A61E5E71A6922F03A
:1056E00002021A61EFE700BF00200240FFFF070837
:1056F000034A136823F0070303431360704700BF96
:1057000000200240034B044A5A6002F188325A607A
:10571000704700BF0020024023016745024A136919
:1057200043F08003136170470020024008B5FFF783
:1057300063FFC307FBD408BD38B505460C4689B2E4
:10574000FFF76AFF210CA81CBDE83840FFF764BFD3
:105750002DE9F0414FF00F0C00250768466843FA29
:1057600005F4E4071CD5072D94BFBE46B646ACB27F
:105770004FEA84048ABF203CA4B2A4B20CFA04F815
:105780002EEA080804F1020E02FA0EFE01FA04F4F1
:105790004EEA040444EA0804072D94BF274626462F
:1057A0000135102DDBD107604660BDE8F0810000B7
:1057B000034A536823F0E0630B430343536070478D
:1057C0000000014001617047090401617047C3682E
:1057D00001EA030221EA030141EA02410161704743
:1057E0004AF6AA22014B1A60704700BF0030004001
:1057F000062824D8DFE800F004090E13181D200045
:10580000104B1868C0F3406070470E4B1868C0F327
:10581000C06070470B4B1868C0F340707047094B6D
:105820001868C0F340407047064B1868C0F340004A
:105830007047044B186AF9E7024B586AF6E70020F4
:10584000704700BF00100240024608B51046FFF73F
:10585000CFFF0028FAD008BD06282AD8DFE800F0DC
:10586000040A0F14191E2400124A136843F08073AF
:10587000136070470F4A136843F08063F8E70D4ADE
:10588000136843F08053F3E70A4A136843F4803304
:10589000EEE7084A136843F00103E9E7054A136A93
:1058A00043F0010313627047024A536A43F0010355
:1058B0005362704700100240034A536823F0030309
:1058C00003435360704700BF00100240034A53680F
:1058D00023F4701343EA8043536070470010024082
:1058E000034AD36A23F4706343EA0023D362704708
:1058F00000100240034AD36A23F4704343EA0033A2
:10590000D362704700100240034A536823F4803387
:1059100043EA00435360704700100240034A536853
:1059200023F4003343EA40435360704700100240C1
:10593000024B186A00F40040704700BF001002409C
:10594000024A136A43F40043136270470010024096
:1059500006283BD8DFE800F035353525350415003D
:105960001B4B1A6A42F001021A621A6A9007FCD5B0
:105970001A6A22F440721A621A6A42F480721A6237
:105980007047134B5A6A42F001025A625A6A9107F1
:10599000FCD51A6A22F440721A621A6A42F4007242
:1059A000EDE70B4B1A6842F480321A601A689203D2
:1059B000FCD51A6A22F440721A621A6A42F44072E2
:1059C000DDE7034A136A23F440731362704700BF94
:1059D00000100240034A536823F4404343EA8033F3
:1059E0005360704700100240034A536823F4605329
:1059F00043EAC0235360704700100240034A5368D3
:105A000023F4E06343EA0023536070470010024030
:105A1000034A536823F0F00343EA001353607047CE
:105A200000100240044B5A6818B142F480025A60D8
:105A3000704722F48002FAE700100240034AD36A5A
:105A400023F00F030343D362704700BF00100240EE
:105A5000034AD36A23F0F00343EA0013D36270478A
:105A600000100240044BDA6A18B142F48032DA6264
:105A7000704722F48032FAE70010024010B5044665
:105A80004378012B0CBF03200420FFF7E5FEFFF74E
:105A9000DBFEA078FFF7BCFFE078FFF7AFFF2079CF
:105AA000FFF7A2FF6079FFF795FF207BFFF7BAFFB2
:105AB000A079FFF71DFE2078FFF708FF6078FFF759
:105AC00023FFE07901282DD9FFF7B8FF207A08B12C
:105AD000FFF7C8FF607A08B1FFF7BAFFA07A30B1CC
:105AE000FFF7FEFE0120FFF7B7FEFFF7ADFEE07AFD
:105AF00030B1FFF7FFFE0220FFF7AEFEFFF7A4FE76
:105B00000020FFF7A9FEFFF79FFE0220FFF7D4FE5B
:105B10002269064B1A606269054B1A60A269054B3F
:105B20001A6010BDFFF7FAFED0E700BFD4000020D6
:105B3000DC000020D80000200122430903F180434B
:105B400003F50433196800F01F0082400A431A600D
:105B500070470122430903F1804303F504331968B8
:105B600000F01F00824011431960196821EA020207
:105B70001A607047054BD3F804289206FBD5D3F87A
:105B8000042842F01002C3F80428704700200040A7
:105B9000054BD3F8042822F01002C3F80428D3F8E8
:105BA00004289206FBD570470020004038B5044613
:105BB00000254FF46770FFF7BFFF40F29B30FFF7FF
:105BC000BBFF00F079FA2046124CFFF7C1FEC4F883
:105BD0000058C4F80458FFF7B3FEFFF7CBFF4FF6A9
:105BE000FF73C4F80858C4F80C58C4F81858C4F81F
:105BF0001C58C4F82038C4F82438FFF7C9FFD4F87B
:105C0000043823F00803C4F80438D4F804381B0718
:105C1000FBD538BD0020004008B5FFF7ABFF064BB1
:105C200082B2C0F30340C3F80C28C3F80808BDE8EB
:105C30000840FFF7ADBF00BF00200040034BD3F882
:105C40001808D3F81C3843EA004070470020004091
:105C500008B5FFF78FFF054B020C80B2C3F8182878
:105C6000C3F81C08BDE80840FFF792BF00200040C1
:105C700008B54FF46770FFF75FFF40F29B30FFF706
:105C80005BFF00F019FA084BD3F8042822F0080251
:105C9000C3F80428D3F804281107FBD5D3F8042847
:105CA0009206FBD508BD00BF0020004038B5054670
:105CB0004FF467700C46FFF73FFF40F29B30FFF751
:105CC0003BFFFFF735FE18B1BDE83840FFF7D0BF06
:105CD0002846FFF76BFF2046BDE83840FFF79CBF22
:105CE000C3680B43C360704703690B4214BF0120B4
:105CF00000207047C94301617047036843F0800387
:105D000003607047036823F0100303607047036863
:105D100043F0010303607047036823F0010303604D
:105D2000704781627047C162704706297AD8DFE800
:105D300001F00479337963799200836923F00303D6
:105D4000836183698361836923F070038361072A18
:105D500068D8DFE802F03304090D1115191D8369B5
:105D600043F0100383617047836943F02003F9E730
:105D7000836943F03003F5E7836943F04003F1E7BB
:105D8000836943F05003EDE7836943F06003E9E77B
:105D9000836943F07003E5E7836923F4407383610B
:105DA00083698361836923F4E0438361072A39D8D7
:105DB000DFE802F004060A0E12161A1E8369D1E704
:105DC000836943F48053CDE7836943F40053C9E703
:105DD000836943F44053C5E7836943F48043C1E7D3
:105DE000836943F4A043BDE7836943F4C043B9E743
:105DF000836943F4E043B5E7C36923F00303C36158
:105E0000C369C361C36923F07003C361072A09D85A
:105E1000DFE802F03304090D1115191DC36943F0C1
:105E20001003C3617047C36943F02003F9E7C369F6
:105E300043F03003F5E7C36943F04003F1E7C3697A
:105E400043F05003EDE7C36943F06003E9E7C3693A
:105E500043F07003E5E7C36923F44073C361C3698A
:105E6000C361C36923F4E043C361072ADAD8DFE8DA
:105E700002F004060A0E12161A1EC369D1E7C3699E
:105E800043F48053CDE7C36943F40053C9E7C369C2
:105E900043F44053C5E7C36943F48043C1E7C36992
:105EA00043F4A043BDE7C36943F4C043B9E7C36902
:105EB00043F4E043B5E706290CD8DFE801F0040B12
:105EC000060B080B0A004263704782637047C26387
:105ED000704702647047406A704741627047000033
:105EE000064A074B90421B6804BF064B1B6803EB36
:105EF0005103B3FBF1F18160704700BF00380140EE
:105F0000DC000020D8000020C36808290CBF23F45F
:105F1000805343F48053C3607047036923F44053B4
:105F20000B4303617047C36823F4C0630B43C36032
:105F30007047C36823F00C030B43C3607047436989
:105F400023F440730B4343617047C36843F4005329
:105F5000C360704738B504460D4600F018F829466E
:105F60002046BDE8384000F00AB8436943F04003DA
:105F700043617047436943F0800343617047C1F355
:105F80000801416070474068C0F30800704703682B
:105F90001B06FCD5704703680B4214BF012000208C
:105FA0007047FEE77047000038B5DFF8C0D0234BDC
:105FB000234A24498B4229D31A46002022498A4287
:105FC00029D3224AD81ED21A22F00302884288BF5F
:105FD00000224FF0A53113441D4A93421ED34FF0C7
:105FE000E022D2F8143D1B4C43F400731A4DC2F862
:105FF000143DAC4215D3194C194DAC4215D3FBF7E7
:10600000FBFD184C184DAC4213D338BD52F8040BAD
:1060100043F8040BCEE742F8040BD0E743F8041B27
:10602000DBE754F8043B9847E3E754F8043B984710
:10603000E3E754F8043B9847E5E700BF0000002081
:10604000F87C0008E0000020F0020020F3020020AD
:1060500000500020F47C0008F47C0008F47C000868
:10606000F87C0008F87C0008F87C0008005000204C
:106070004FF0E023014AC3F80C2DFEE70400FA05B7
:10608000012243099B0003F1604300F01F0003F568
:10609000614382401A607047432893BF00F160401B
:1060A000044B00F00F0000F564408CBFC154017038
:1060B000704700BF14ED00E0024A136843F4807398
:1060C000136070470070004081F0004102E000BFA3
:1060D00083F0004330B54FEA41044FEA430594EAA8
:1060E000050F08BF90EA020F1FBF54EA000C55EAE3
:1060F000020C7FEA645C7FEA655C00F0E2804FEAB4
:106100005454D4EB5555B8BF6D420CDD2C4480EA95
:10611000020281EA030382EA000083EA010180EAC5
:10612000020281EA0303362D88BF30BD11F0004F13
:106130004FEA01314FF4801C4CEA113102D0404249
:1061400061EB410113F0004F4FEA03334CEA133384
:1061500002D0524263EB430394EA050F00F0A7809C
:10616000A4F10104D5F1200E0DDB02FA0EFC22FA97
:1061700005F2801841F1000103FA0EF2801843FA8B
:1061800005F359410EE0A5F120050EF1200E012A7C
:1061900003FA0EFC28BF4CF0020C43FA05F3C018BA
:1061A00051EBE37101F0004507D54FF0000EDCF133
:1061B000000C7EEB00006EEB0101B1F5801F1BD3DC
:1061C000B1F5001F0CD349085FEA30004FEA3C0CE0
:1061D00004F101044FEA445212F5800F80F09A80D6
:1061E000BCF1004F08BF5FEA500C50F1000041EBDA
:1061F000045141EA050130BD5FEA4C0C404141EBDE
:106200000101013C28BFB1F5801FE9D291F0000FD8
:1062100004BF01460020B1FA81F308BF2033A3F187
:106220000B03B3F120020CDA0C3208DD02F1140C7E
:10623000C2F10C0201FA0CF021FA02F10CE002F1B9
:106240001402D8BFC2F1200C01FA02F120FA0CFCB2
:10625000DCBF41EA0C019040E41AA2BF01EB0451FB
:10626000294330BD6FEA04041F3C1CDA0C340EDCF9
:1062700004F11404C4F1200220FA04F001FA02F33C
:1062800040EA030021FA04F345EA030130BDC4F1FA
:106290000C04C4F1200220FA02F001FA04F340EAEF
:1062A0000300294630BD21FA04F0294630BD94F0A0
:1062B000000F83F4801306BF81F480110134013D87
:1062C0004EE77FEA645C18BF7FEA655C29D094EAF8
:1062D000050F08BF90EA020F05D054EA000C04BF76
:1062E0001946104630BD91EA030F1EBF0021002061
:1062F00030BD5FEA545C05D14000494128BF41F000
:10630000004130BD14F580043CBF01F5801130BD63
:1063100001F0004545F0FE4141F470014FF00000EE
:1063200030BD7FEA645C1ABF194610467FEA655C9F
:106330001CBF0B46024650EA013406BF52EA033541
:1063400091EA030F41F4002130BD00BF90F0000F2F
:1063500004BF0021704730B54FF4806404F132046B
:106360004FF000054FF0000150E700BF90F0000F24
:1063700004BF0021704730B54FF4806404F132044B
:1063800010F0004548BF40424FF000013EE700BF1B
:1063900042004FEAE2014FEA31014FEA02701FBFAB
:1063A00012F07F4393F07F4F81F06051704732F0DD
:1063B0007F4208BF704793F07F4F04BF41F4002134
:1063C000704730B54FF4607401F0004521F0004192
:1063D0001CE700BF50EA010208BF704730B54FF01C
:1063E00000050AE050EA010208BF704730B511F01D
:1063F000004502D5404261EB41014FF4806404F155
:1064000032045FEA915C3FF4D8AE4FF003025FEADA
:10641000DC0C18BF03325FEADC0C18BF033202EB5E
:10642000DC02C2F1200300FA03FC20FA02F001FAB8
:1064300003FE40EA0E0021FA02F11444BDE600BF5B
:1064400070B54FF0FF0C4CF4E06C1CEA11541DBF0A
:106450001CEA135594EA0C0F95EA0C0F00F0DEF8D5
:106460002C4481EA030621EA4C5123EA4C5350EABA
:10647000013518BF52EA033541F4801143F480130B
:1064800038D0A0FB02CE4FF00005E1FB02E506F09C
:106490000042E0FB03E54FF00006E1FB03569CF0F1
:1064A000000F18BF4EF0010EA4F1FF04B6F5007FF7
:1064B00064F5407404D25FEA4E0E6D4146EB060669
:1064C00042EAC62141EA55514FEAC52040EA5E50F2
:1064D0004FEACE2EB4F1FD0C88BFBCF5E06F1ED89C
:1064E000BEF1004F08BF5FEA500E50F1000041EBD3
:1064F000045170BD06F0004646EA010140EA020080
:1065000081EA0301B4EB5C04C2BFD4EB0C0541EAA1
:10651000045170BD41F480114FF0000E013C00F3B6
:10652000AB8014F1360FDEBF002001F0004170BDDA
:10653000C4F10004203C35DA0C341BDC04F11404F3
:10654000C4F1200500FA05F320FA04F001FA05F27F
:1065500040EA020001F0004221F0004110EBD3704C
:1065600021FA04F642EB06015EEA430E08BF20EA78
:10657000D37070BDC4F10C04C4F1200500FA04F31B
:1065800020FA05F001FA04F240EA020001F00041AD
:1065900010EBD37041F100015EEA430E08BF20EA20
:1065A000D37070BDC4F1200500FA05F24EEA020E68
:1065B00020FA04F301FA05F243EA020321FA04F097
:1065C00001F0004121FA04F220EA020000EBD3704E
:1065D0005EEA430E08BF20EAD37070BD94F0000F4E
:1065E0000FD101F00046400041EB010111F4801F82
:1065F00008BF013CF7D041EA060195F0000F18BF33
:10660000704703F00046520043EB030313F4801F6E
:1066100008BF013DF7D043EA0603704794EA0C0F28
:106620000CEA135518BF95EA0C0F0CD050EA41063E
:1066300018BF52EA4306D1D181EA030101F00041BB
:106640004FF0000070BD50EA410606BF10461946E3
:1066500052EA430619D094EA0C0F02D150EA0136EF
:1066600013D195EA0C0F05D152EA03361CBF104630
:1066700019460AD181EA030101F0004141F0FE41CF
:1066800041F470014FF0000070BD41F0FE4141F453
:10669000780170BD70B54FF0FF0C4CF4E06C1CEA53
:1066A00011541DBF1CEA135594EA0C0F95EA0C0F08
:1066B00000F0A7F8A4EB050481EA030E52EA0335C3
:1066C0004FEA013100F088804FEA03334FF08055E4
:1066D00045EA131343EA12634FEA022245EA111511
:1066E00045EA10654FEA00260EF000419D4208BFC2
:1066F000964244F1FD0404F5407402D25B084FEA6F
:106700003202B61A65EB03055B084FEA32024FF41A
:1067100080104FF4002CB6EB020E75EB030E22BF77
:10672000B61A754640EA0C005B084FEA3202B6EB37
:10673000020E75EB030E22BFB61A754640EA5C00E6
:106740005B084FEA3202B6EB020E75EB030E22BF76
:10675000B61A754640EA9C005B084FEA3202B6EB77
:10676000020E75EB030E22BFB61A754640EADC0036
:1067700055EA060E18D04FEA051545EA16754FEA98
:1067800006164FEAC30343EA52734FEAC2025FEAB6
:106790001C1CC0D111F4801F0BD141EA00014FF045
:1067A00000004FF0004CB6E711F4801F04BF014316
:1067B0000020B4F1FD0C88BFBCF5E06F3FF6AFAE32
:1067C000B5EB030C04BFB6EB020C5FEA500C50F1C2
:1067D000000041EB045170BD0EF0004E4EEA113145
:1067E00014EB5C04C2BFD4EB0C0541EA045170BD4C
:1067F00041F480114FF0000E013C90E645EA060E90
:106800008DE60CEA135594EA0C0F08BF95EA0C0FBD
:106810003FF43BAF94EA0C0F0AD150EA01347FF405
:1068200034AF95EA0C0F7FF425AF104619462CE7DC
:1068300095EA0C0F06D152EA03353FF4FDAE10463F
:10684000194622E750EA410618BF52EA43067FF490
:10685000C5AE50EA41047FF40DAF52EA43057FF420
:10686000EBAE12E74FEA4102B2F1E04324BFB3F5C9
:10687000001CDCF1FE5C0DD901F0004C4FEAC002B7
:106880004CEA5070B2F1004F40EB830008BF20F09B
:106890000100704711F0804F21D113F13872BCBF55
:1068A00001F00040704741F480114FEA5252C2F1AA
:1068B0001802C2F1200C10FA0CF320FA02F018BFF3
:1068C00040F001004FEAC1234FEAD32303FA0CFC46
:1068D00040EA0C0023FA02F34FEA4303CCE77FEAD5
:1068E000625307D150EA01331EBF4FF0FE4040F41F
:1068F0004000704701F0004040F0FE4040F40000CE
:10690000704700BF80F0004002E000BF81F000410E
:1069100042001FBF5FEA410392EA030F7FEA226C45
:106920007FEA236C6AD04FEA1262D2EB1363C1BFD5
:10693000D218414048404140B8BF5B42192B88BF44
:10694000704710F0004F40F4000020F07F4018BF67
:10695000404211F0004F41F4000121F07F4118BF87
:10696000494292EA030F3FD0A2F1010241FA03FC2F
:1069700010EB0C00C3F1200301FA03F100F0004317
:1069800002D5494260EB4000B0F5000F13D3B0F1DF
:10699000807F06D340084FEA310102F10102FE2A4E
:1069A00051D2B1F1004F40EBC25008BF20F00100BE
:1069B00040EA03007047490040EB0000013A28BF5D
:1069C000B0F5000FEDD2B0FA80FCACF1080CB2EBE0
:1069D0000C0200FA0CF0AABF00EBC250524218435E
:1069E000BCBFD0401843704792F0000F81F4000103
:1069F00006BF80F400000132013BB5E74FEA4103D6
:106A00007FEA226C18BF7FEA236C21D092EA030F41
:106A100004D092F0000F08BF0846704790EA010FBB
:106A20001CBF0020704712F07F4F04D1400028BFE8
:106A300040F00040704712F100723CBF00F50000CA
:106A4000704700F0004343F0FE4040F40000704700
:106A50007FEA226216BF08467FEA236301464202AC
:106A600006BF5FEA412390EA010F40F480007047BF
:106A70004FF0000304E000BF10F0004348BF404265
:106A80005FEA000C08BF704743F0964301464FF0A1
:106A900000001CE050EA010208BF70474FF00003FD
:106AA0000AE000BF50EA010208BF704711F000433E
:106AB00002D5404261EB41015FEA010C02BF84460E
:106AC0000146002043F0B64308BFA3F18053A3F56D
:106AD0000003BCFA8CF2083AA3EBC25310DB01FAB4
